{
  "_format": "hh-sol-artifact-1",
  "contractName": "NFTTEST",
  "sourceName": "contracts/nft.sol",
  "abi": [
    {
      "inputs": [],
      "stateMutability": "nonpayable",
      "type": "constructor"
    },
    {
      "anonymous": false,
      "inputs": [
        {
          "indexed": true,
          "internalType": "address",
          "name": "owner",
          "type": "address"
        },
        {
          "indexed": true,
          "internalType": "address",
          "name": "approved",
          "type": "address"
        },
        {
          "indexed": true,
          "internalType": "uint256",
          "name": "tokenId",
          "type": "uint256"
        }
      ],
      "name": "Approval",
      "type": "event"
    },
    {
      "anonymous": false,
      "inputs": [
        {
          "indexed": true,
          "internalType": "address",
          "name": "owner",
          "type": "address"
        },
        {
          "indexed": true,
          "internalType": "address",
          "name": "operator",
          "type": "address"
        },
        {
          "indexed": false,
          "internalType": "bool",
          "name": "approved",
          "type": "bool"
        }
      ],
      "name": "ApprovalForAll",
      "type": "event"
    },
    {
      "anonymous": false,
      "inputs": [
        {
          "indexed": true,
          "internalType": "address",
          "name": "previousOwner",
          "type": "address"
        },
        {
          "indexed": true,
          "internalType": "address",
          "name": "newOwner",
          "type": "address"
        }
      ],
      "name": "OwnershipTransferred",
      "type": "event"
    },
    {
      "anonymous": false,
      "inputs": [
        {
          "indexed": true,
          "internalType": "address",
          "name": "from",
          "type": "address"
        },
        {
          "indexed": true,
          "internalType": "address",
          "name": "to",
          "type": "address"
        },
        {
          "indexed": true,
          "internalType": "uint256",
          "name": "tokenId",
          "type": "uint256"
        }
      ],
      "name": "Transfer",
      "type": "event"
    },
    {
      "inputs": [
        {
          "internalType": "uint256",
          "name": "",
          "type": "uint256"
        }
      ],
      "name": "NFTLEVEL",
      "outputs": [
        {
          "internalType": "uint256",
          "name": "",
          "type": "uint256"
        }
      ],
      "stateMutability": "view",
      "type": "function"
    },
    {
      "inputs": [
        {
          "internalType": "address",
          "name": "to",
          "type": "address"
        },
        {
          "internalType": "uint256",
          "name": "tokenId",
          "type": "uint256"
        }
      ],
      "name": "approve",
      "outputs": [],
      "stateMutability": "nonpayable",
      "type": "function"
    },
    {
      "inputs": [
        {
          "internalType": "address",
          "name": "owner",
          "type": "address"
        }
      ],
      "name": "balanceOf",
      "outputs": [
        {
          "internalType": "uint256",
          "name": "",
          "type": "uint256"
        }
      ],
      "stateMutability": "view",
      "type": "function"
    },
    {
      "inputs": [
        {
          "internalType": "uint256",
          "name": "tokenId",
          "type": "uint256"
        }
      ],
      "name": "burn",
      "outputs": [],
      "stateMutability": "nonpayable",
      "type": "function"
    },
    {
      "inputs": [
        {
          "internalType": "uint256",
          "name": "_MaxLevel",
          "type": "uint256"
        }
      ],
      "name": "changeMaxLevel",
      "outputs": [],
      "stateMutability": "nonpayable",
      "type": "function"
    },
    {
      "inputs": [
        {
          "internalType": "uint256",
          "name": "_MinLevel",
          "type": "uint256"
        }
      ],
      "name": "changeMinLevel",
      "outputs": [],
      "stateMutability": "nonpayable",
      "type": "function"
    },
    {
      "inputs": [
        {
          "internalType": "uint256",
          "name": "tokenId",
          "type": "uint256"
        }
      ],
      "name": "getApproved",
      "outputs": [
        {
          "internalType": "address",
          "name": "",
          "type": "address"
        }
      ],
      "stateMutability": "view",
      "type": "function"
    },
    {
      "inputs": [
        {
          "internalType": "address",
          "name": "owner",
          "type": "address"
        },
        {
          "internalType": "address",
          "name": "operator",
          "type": "address"
        }
      ],
      "name": "isApprovedForAll",
      "outputs": [
        {
          "internalType": "bool",
          "name": "",
          "type": "bool"
        }
      ],
      "stateMutability": "view",
      "type": "function"
    },
    {
      "inputs": [],
      "name": "name",
      "outputs": [
        {
          "internalType": "string",
          "name": "",
          "type": "string"
        }
      ],
      "stateMutability": "view",
      "type": "function"
    },
    {
      "inputs": [],
      "name": "owner",
      "outputs": [
        {
          "internalType": "address",
          "name": "",
          "type": "address"
        }
      ],
      "stateMutability": "view",
      "type": "function"
    },
    {
      "inputs": [
        {
          "internalType": "uint256",
          "name": "tokenId",
          "type": "uint256"
        }
      ],
      "name": "ownerOf",
      "outputs": [
        {
          "internalType": "address",
          "name": "",
          "type": "address"
        }
      ],
      "stateMutability": "view",
      "type": "function"
    },
    {
      "inputs": [],
      "name": "renounceOwnership",
      "outputs": [],
      "stateMutability": "nonpayable",
      "type": "function"
    },
    {
      "inputs": [
        {
          "internalType": "address",
          "name": "to",
          "type": "address"
        },
        {
          "internalType": "uint256",
          "name": "_level",
          "type": "uint256"
        }
      ],
      "name": "safeMint",
      "outputs": [
        {
          "internalType": "uint256",
          "name": "",
          "type": "uint256"
        }
      ],
      "stateMutability": "nonpayable",
      "type": "function"
    },
    {
      "inputs": [
        {
          "internalType": "address",
          "name": "from",
          "type": "address"
        },
        {
          "internalType": "address",
          "name": "to",
          "type": "address"
        },
        {
          "internalType": "uint256",
          "name": "tokenId",
          "type": "uint256"
        }
      ],
      "name": "safeTransferFrom",
      "outputs": [],
      "stateMutability": "nonpayable",
      "type": "function"
    },
    {
      "inputs": [
        {
          "internalType": "address",
          "name": "from",
          "type": "address"
        },
        {
          "internalType": "address",
          "name": "to",
          "type": "address"
        },
        {
          "internalType": "uint256",
          "name": "tokenId",
          "type": "uint256"
        },
        {
          "internalType": "bytes",
          "name": "data",
          "type": "bytes"
        }
      ],
      "name": "safeTransferFrom",
      "outputs": [],
      "stateMutability": "nonpayable",
      "type": "function"
    },
    {
      "inputs": [
        {
          "internalType": "address",
          "name": "operator",
          "type": "address"
        },
        {
          "internalType": "bool",
          "name": "approved",
          "type": "bool"
        }
      ],
      "name": "setApprovalForAll",
      "outputs": [],
      "stateMutability": "nonpayable",
      "type": "function"
    },
    {
      "inputs": [
        {
          "internalType": "string",
          "name": "_baseUri",
          "type": "string"
        }
      ],
      "name": "setBaseUri",
      "outputs": [],
      "stateMutability": "nonpayable",
      "type": "function"
    },
    {
      "inputs": [
        {
          "internalType": "bytes4",
          "name": "interfaceId",
          "type": "bytes4"
        }
      ],
      "name": "supportsInterface",
      "outputs": [
        {
          "internalType": "bool",
          "name": "",
          "type": "bool"
        }
      ],
      "stateMutability": "view",
      "type": "function"
    },
    {
      "inputs": [],
      "name": "symbol",
      "outputs": [
        {
          "internalType": "string",
          "name": "",
          "type": "string"
        }
      ],
      "stateMutability": "view",
      "type": "function"
    },
    {
      "inputs": [
        {
          "internalType": "uint256",
          "name": "index",
          "type": "uint256"
        }
      ],
      "name": "tokenByIndex",
      "outputs": [
        {
          "internalType": "uint256",
          "name": "",
          "type": "uint256"
        }
      ],
      "stateMutability": "view",
      "type": "function"
    },
    {
      "inputs": [
        {
          "internalType": "address",
          "name": "owner",
          "type": "address"
        },
        {
          "internalType": "uint256",
          "name": "index",
          "type": "uint256"
        }
      ],
      "name": "tokenOfOwnerByIndex",
      "outputs": [
        {
          "internalType": "uint256",
          "name": "",
          "type": "uint256"
        }
      ],
      "stateMutability": "view",
      "type": "function"
    },
    {
      "inputs": [
        {
          "internalType": "uint256",
          "name": "tokenId",
          "type": "uint256"
        }
      ],
      "name": "tokenURI",
      "outputs": [
        {
          "internalType": "string",
          "name": "",
          "type": "string"
        }
      ],
      "stateMutability": "view",
      "type": "function"
    },
    {
      "inputs": [],
      "name": "totalSupply",
      "outputs": [
        {
          "internalType": "uint256",
          "name": "",
          "type": "uint256"
        }
      ],
      "stateMutability": "view",
      "type": "function"
    },
    {
      "inputs": [
        {
          "internalType": "address",
          "name": "from",
          "type": "address"
        },
        {
          "internalType": "address",
          "name": "to",
          "type": "address"
        },
        {
          "internalType": "uint256",
          "name": "tokenId",
          "type": "uint256"
        }
      ],
      "name": "transferFrom",
      "outputs": [],
      "stateMutability": "nonpayable",
      "type": "function"
    },
    {
      "inputs": [
        {
          "internalType": "address",
          "name": "newOwner",
          "type": "address"
        }
      ],
      "name": "transferOwnership",
      "outputs": [],
      "stateMutability": "nonpayable",
      "type": "function"
    }
  ],
  "bytecode": "0x60806040526001600c55600c600d553480156200001b57600080fd5b506040518060400160405280600881526020017f4e46545f544553540000000000000000000000000000000000000000000000008152506040518060400160405280600381526020017f4e4654000000000000000000000000000000000000000000000000000000000081525081600090816200009991906200041c565b508060019081620000ab91906200041c565b505050620000ce620000c2620000d460201b60201c565b620000dc60201b60201c565b62000503565b600033905090565b6000600a60009054906101000a900473ffffffffffffffffffffffffffffffffffffffff16905081600a60006101000a81548173ffffffffffffffffffffffffffffffffffffffff021916908373ffffffffffffffffffffffffffffffffffffffff1602179055508173ffffffffffffffffffffffffffffffffffffffff168173ffffffffffffffffffffffffffffffffffffffff167f8be0079c531659141344cd1fd0a4f28419497f9722a3daafe3b4186f6b6457e060405160405180910390a35050565b600081519050919050565b7f4e487b7100000000000000000000000000000000000000000000000000000000600052604160045260246000fd5b7f4e487b7100000000000000000000000000000000000000000000000000000000600052602260045260246000fd5b600060028204905060018216806200022457607f821691505b6020821081036200023a5762000239620001dc565b5b50919050565b60008190508160005260206000209050919050565b60006020601f8301049050919050565b600082821b905092915050565b600060088302620002a47fffffffffffffffffffffffffffffffffffffffffffffffffffffffffffffffff8262000265565b620002b0868362000265565b95508019841693508086168417925050509392505050565b6000819050919050565b6000819050919050565b6000620002fd620002f7620002f184620002c8565b620002d2565b620002c8565b9050919050565b6000819050919050565b6200031983620002dc565b62000331620003288262000304565b84845462000272565b825550505050565b600090565b6200034862000339565b620003558184846200030e565b505050565b5b818110156200037d57620003716000826200033e565b6001810190506200035b565b5050565b601f821115620003cc57620003968162000240565b620003a18462000255565b81016020851015620003b1578190505b620003c9620003c08562000255565b8301826200035a565b50505b505050565b600082821c905092915050565b6000620003f160001984600802620003d1565b1980831691505092915050565b60006200040c8383620003de565b9150826002028217905092915050565b6200042782620001a2565b67ffffffffffffffff811115620004435762000442620001ad565b5b6200044f82546200020b565b6200045c82828562000381565b600060209050601f8311600181146200049457600084156200047f578287015190505b6200048b8582620003fe565b865550620004fb565b601f198416620004a48662000240565b60005b82811015620004ce57848901518255600182019150602085019450602081019050620004a7565b86831015620004ee5784890151620004ea601f891682620003de565b8355505b6001600288020188555050505b505050505050565b6138e480620005136000396000f3fe608060405234801561001057600080fd5b50600436106101735760003560e01c806370a08231116100de578063a22cb46511610097578063c87b56dd11610071578063c87b56dd1461045a578063d969df311461048a578063e985e9c5146104a6578063f2fde38b146104d657610173565b8063a22cb465146103f2578063af81ab8a1461040e578063b88d4fde1461043e57610173565b806370a0823114610330578063715018a6146103605780638da5cb5b1461036a57806395d89b4114610388578063a0bcfc7f146103a6578063a1448194146103c257610173565b806323b872dd1161013057806323b872dd1461024c5780632f745c591461026857806342842e0e1461029857806342966c68146102b45780634f6ccce7146102d05780636352211e1461030057610173565b806301ffc9a71461017857806306fdde03146101a8578063081812fc146101c6578063095ea7b3146101f657806311b34b471461021257806318160ddd1461022e575b600080fd5b610192600480360381019061018d9190612362565b6104f2565b60405161019f91906123aa565b60405180910390f35b6101b0610504565b6040516101bd9190612455565b60405180910390f35b6101e060048036038101906101db91906124ad565b610596565b6040516101ed919061251b565b60405180910390f35b610210600480360381019061020b9190612562565b6105dc565b005b61022c600480360381019061022791906124ad565b6106f3565b005b610236610705565b60405161024391906125b1565b60405180910390f35b610266600480360381019061026191906125cc565b610712565b005b610282600480360381019061027d9190612562565b610772565b60405161028f91906125b1565b60405180910390f35b6102b260048036038101906102ad91906125cc565b610817565b005b6102ce60048036038101906102c991906124ad565b610837565b005b6102ea60048036038101906102e591906124ad565b610893565b6040516102f791906125b1565b60405180910390f35b61031a600480360381019061031591906124ad565b610904565b604051610327919061251b565b60405180910390f35b61034a6004803603810190610345919061261f565b6109b5565b60405161035791906125b1565b60405180910390f35b610368610a6c565b005b610372610a80565b60405161037f919061251b565b60405180910390f35b610390610aaa565b60405161039d9190612455565b60405180910390f35b6103c060048036038101906103bb9190612781565b610b3c565b005b6103dc60048036038101906103d79190612562565b610b57565b6040516103e991906125b1565b60405180910390f35b61040c600480360381019061040791906127f6565b610bf0565b005b610428600480360381019061042391906124ad565b610c06565b60405161043591906125b1565b60405180910390f35b610458600480360381019061045391906128d7565b610c1e565b005b610474600480360381019061046f91906124ad565b610c80565b6040516104819190612455565b60405180910390f35b6104a4600480360381019061049f91906124ad565b610d27565b005b6104c060048036038101906104bb919061295a565b610d39565b6040516104cd91906123aa565b60405180910390f35b6104f060048036038101906104eb919061261f565b610dcd565b005b60006104fd82610e50565b9050919050565b606060008054610513906129c9565b80601f016020809104026020016040519081016040528092919081815260200182805461053f906129c9565b801561058c5780601f106105615761010080835404028352916020019161058c565b820191906000526020600020905b81548152906001019060200180831161056f57829003601f168201915b5050505050905090565b60006105a182610eca565b6004600083815260200190815260200160002060009054906101000a900473ffffffffffffffffffffffffffffffffffffffff169050919050565b60006105e782610904565b90508073ffffffffffffffffffffffffffffffffffffffff168373ffffffffffffffffffffffffffffffffffffffff1603610657576040517f08c379a000000000000000000000000000000000000000000000000000000000815260040161064e90612a6c565b60405180910390fd5b8073ffffffffffffffffffffffffffffffffffffffff16610676610f15565b73ffffffffffffffffffffffffffffffffffffffff1614806106a557506106a48161069f610f15565b610d39565b5b6106e4576040517f08c379a00000000000000000000000000000000000000000000000000000000081526004016106db90612afe565b60405180910390fd5b6106ee8383610f1d565b505050565b6106fb610fd6565b80600d8190555050565b6000600880549050905090565b61072361071d610f15565b82611054565b610762576040517f08c379a000000000000000000000000000000000000000000000000000000000815260040161075990612b90565b60405180910390fd5b61076d8383836110e9565b505050565b600061077d836109b5565b82106107be576040517f08c379a00000000000000000000000000000000000000000000000000000000081526004016107b590612c22565b60405180910390fd5b600660008473ffffffffffffffffffffffffffffffffffffffff1673ffffffffffffffffffffffffffffffffffffffff168152602001908152602001600020600083815260200190815260200160002054905092915050565b61083283838360405180602001604052806000815250610c1e565b505050565b610848610842610f15565b82611054565b610887576040517f08c379a000000000000000000000000000000000000000000000000000000000815260040161087e90612b90565b60405180910390fd5b6108908161134f565b50565b600061089d610705565b82106108de576040517f08c379a00000000000000000000000000000000000000000000000000000000081526004016108d590612cb4565b60405180910390fd5b600882815481106108f2576108f1612cd4565b5b90600052602060002001549050919050565b6000806002600084815260200190815260200160002060009054906101000a900473ffffffffffffffffffffffffffffffffffffffff169050600073ffffffffffffffffffffffffffffffffffffffff168173ffffffffffffffffffffffffffffffffffffffff16036109ac576040517f08c379a00000000000000000000000000000000000000000000000000000000081526004016109a390612d4f565b60405180910390fd5b80915050919050565b60008073ffffffffffffffffffffffffffffffffffffffff168273ffffffffffffffffffffffffffffffffffffffff1603610a25576040517f08c379a0000000000000000000000000000000000000000000000000000000008152600401610a1c90612de1565b60405180910390fd5b600360008373ffffffffffffffffffffffffffffffffffffffff1673ffffffffffffffffffffffffffffffffffffffff168152602001908152602001600020549050919050565b610a74610fd6565b610a7e600061146c565b565b6000600a60009054906101000a900473ffffffffffffffffffffffffffffffffffffffff16905090565b606060018054610ab9906129c9565b80601f0160208091040260200160405190810160405280929190818152602001828054610ae5906129c9565b8015610b325780601f10610b0757610100808354040283529160200191610b32565b820191906000526020600020905b815481529060010190602001808311610b1557829003601f168201915b5050505050905090565b610b44610fd6565b80600e9081610b539190612fad565b5050565b6000600c548210158015610b6d5750600d548211155b610bac576040517f08c379a0000000000000000000000000000000000000000000000000000000008152600401610ba3906130cb565b60405180910390fd5b6000610bb8600f611532565b9050610bc4600f611540565b610bce8482611556565b82600b6000838152602001908152602001600020819055508091505092915050565b610c02610bfb610f15565b8383611574565b5050565b600b6020528060005260406000206000915090505481565b610c2f610c29610f15565b83611054565b610c6e576040517f08c379a0000000000000000000000000000000000000000000000000000000008152600401610c6590612b90565b60405180910390fd5b610c7a848484846116e0565b50505050565b6060610c8b8261173c565b610cca576040517f08c379a0000000000000000000000000000000000000000000000000000000008152600401610cc19061315d565b60405180910390fd5b6000610cd46117a8565b90506000815111610cf45760405180602001604052806000815250610d1f565b80610cfe8461183a565b604051602001610d0f929190613205565b6040516020818303038152906040525b915050919050565b610d2f610fd6565b80600c8190555050565b6000600560008473ffffffffffffffffffffffffffffffffffffffff1673ffffffffffffffffffffffffffffffffffffffff16815260200190815260200160002060008373ffffffffffffffffffffffffffffffffffffffff1673ffffffffffffffffffffffffffffffffffffffff16815260200190815260200160002060009054906101000a900460ff16905092915050565b610dd5610fd6565b600073ffffffffffffffffffffffffffffffffffffffff168173ffffffffffffffffffffffffffffffffffffffff1603610e44576040517f08c379a0000000000000000000000000000000000000000000000000000000008152600401610e3b906132a6565b60405180910390fd5b610e4d8161146c565b50565b60007f780e9d63000000000000000000000000000000000000000000000000000000007bffffffffffffffffffffffffffffffffffffffffffffffffffffffff1916827bffffffffffffffffffffffffffffffffffffffffffffffffffffffff19161480610ec35750610ec28261199a565b5b9050919050565b610ed38161173c565b610f12576040517f08c379a0000000000000000000000000000000000000000000000000000000008152600401610f0990612d4f565b60405180910390fd5b50565b600033905090565b816004600083815260200190815260200160002060006101000a81548173ffffffffffffffffffffffffffffffffffffffff021916908373ffffffffffffffffffffffffffffffffffffffff160217905550808273ffffffffffffffffffffffffffffffffffffffff16610f9083610904565b73ffffffffffffffffffffffffffffffffffffffff167f8c5be1e5ebec7d5bd14f71427d1e84f3dd0314c0f7b2291e5b200ac8c7c3b92560405160405180910390a45050565b610fde610f15565b73ffffffffffffffffffffffffffffffffffffffff16610ffc610a80565b73ffffffffffffffffffffffffffffffffffffffff1614611052576040517f08c379a000000000000000000000000000000000000000000000000000000000815260040161104990613312565b60405180910390fd5b565b60008061106083610904565b90508073ffffffffffffffffffffffffffffffffffffffff168473ffffffffffffffffffffffffffffffffffffffff1614806110a257506110a18185610d39565b5b806110e057508373ffffffffffffffffffffffffffffffffffffffff166110c884610596565b73ffffffffffffffffffffffffffffffffffffffff16145b91505092915050565b8273ffffffffffffffffffffffffffffffffffffffff1661110982610904565b73ffffffffffffffffffffffffffffffffffffffff161461115f576040517f08c379a0000000000000000000000000000000000000000000000000000000008152600401611156906133a4565b60405180910390fd5b600073ffffffffffffffffffffffffffffffffffffffff168273ffffffffffffffffffffffffffffffffffffffff16036111ce576040517f08c379a00000000000000000000000000000000000000000000000000000000081526004016111c590613436565b60405180910390fd5b6111d9838383611a7c565b6111e4600082610f1d565b6001600360008573ffffffffffffffffffffffffffffffffffffffff1673ffffffffffffffffffffffffffffffffffffffff16815260200190815260200160002060008282546112349190613485565b925050819055506001600360008473ffffffffffffffffffffffffffffffffffffffff1673ffffffffffffffffffffffffffffffffffffffff168152602001908152602001600020600082825461128b91906134b9565b92505081905550816002600083815260200190815260200160002060006101000a81548173ffffffffffffffffffffffffffffffffffffffff021916908373ffffffffffffffffffffffffffffffffffffffff160217905550808273ffffffffffffffffffffffffffffffffffffffff168473ffffffffffffffffffffffffffffffffffffffff167fddf252ad1be2c89b69c2b068fc378daa952ba7f163c4a11628f55a4df523b3ef60405160405180910390a461134a838383611a8c565b505050565b600061135a82610904565b905061136881600084611a7c565b611373600083610f1d565b6001600360008373ffffffffffffffffffffffffffffffffffffffff1673ffffffffffffffffffffffffffffffffffffffff16815260200190815260200160002060008282546113c39190613485565b925050819055506002600083815260200190815260200160002060006101000a81549073ffffffffffffffffffffffffffffffffffffffff021916905581600073ffffffffffffffffffffffffffffffffffffffff168273ffffffffffffffffffffffffffffffffffffffff167fddf252ad1be2c89b69c2b068fc378daa952ba7f163c4a11628f55a4df523b3ef60405160405180910390a461146881600084611a8c565b5050565b6000600a60009054906101000a900473ffffffffffffffffffffffffffffffffffffffff16905081600a60006101000a81548173ffffffffffffffffffffffffffffffffffffffff021916908373ffffffffffffffffffffffffffffffffffffffff1602179055508173ffffffffffffffffffffffffffffffffffffffff168173ffffffffffffffffffffffffffffffffffffffff167f8be0079c531659141344cd1fd0a4f28419497f9722a3daafe3b4186f6b6457e060405160405180910390a35050565b600081600001549050919050565b6001816000016000828254019250508190555050565b611570828260405180602001604052806000815250611a91565b5050565b8173ffffffffffffffffffffffffffffffffffffffff168373ffffffffffffffffffffffffffffffffffffffff16036115e2576040517f08c379a00000000000000000000000000000000000000000000000000000000081526004016115d990613539565b60405180910390fd5b80600560008573ffffffffffffffffffffffffffffffffffffffff1673ffffffffffffffffffffffffffffffffffffffff16815260200190815260200160002060008473ffffffffffffffffffffffffffffffffffffffff1673ffffffffffffffffffffffffffffffffffffffff16815260200190815260200160002060006101000a81548160ff0219169083151502179055508173ffffffffffffffffffffffffffffffffffffffff168373ffffffffffffffffffffffffffffffffffffffff167f17307eab39ab6107e8899845ad3d59bd9653f200f220920489ca2b5937696c31836040516116d391906123aa565b60405180910390a3505050565b6116eb8484846110e9565b6116f784848484611aec565b611736576040517f08c379a000000000000000000000000000000000000000000000000000000000815260040161172d906135cb565b60405180910390fd5b50505050565b60008073ffffffffffffffffffffffffffffffffffffffff166002600084815260200190815260200160002060009054906101000a900473ffffffffffffffffffffffffffffffffffffffff1673ffffffffffffffffffffffffffffffffffffffff1614159050919050565b6060600e80546117b7906129c9565b80601f01602080910402602001604051908101604052809291908181526020018280546117e3906129c9565b80156118305780601f1061180557610100808354040283529160200191611830565b820191906000526020600020905b81548152906001019060200180831161181357829003601f168201915b5050505050905090565b606060008203611881576040518060400160405280600181526020017f30000000000000000000000000000000000000000000000000000000000000008152509050611995565b600082905060005b600082146118b357808061189c906135eb565b915050600a826118ac9190613662565b9150611889565b60008167ffffffffffffffff8111156118cf576118ce612656565b5b6040519080825280601f01601f1916602001820160405280156119015781602001600182028036833780820191505090505b5090505b6000851461198e5760018261191a9190613485565b9150600a856119299190613693565b603061193591906134b9565b60f81b81838151811061194b5761194a612cd4565b5b60200101907effffffffffffffffffffffffffffffffffffffffffffffffffffffffffffff1916908160001a905350600a856119879190613662565b9450611905565b8093505050505b919050565b60007f80ac58cd000000000000000000000000000000000000000000000000000000007bffffffffffffffffffffffffffffffffffffffffffffffffffffffff1916827bffffffffffffffffffffffffffffffffffffffffffffffffffffffff19161480611a6557507f5b5e139f000000000000000000000000000000000000000000000000000000007bffffffffffffffffffffffffffffffffffffffffffffffffffffffff1916827bffffffffffffffffffffffffffffffffffffffffffffffffffffffff1916145b80611a755750611a7482611c73565b5b9050919050565b611a87838383611cdd565b505050565b505050565b611a9b8383611def565b611aa86000848484611aec565b611ae7576040517f08c379a0000000000000000000000000000000000000000000000000000000008152600401611ade906135cb565b60405180910390fd5b505050565b6000611b0d8473ffffffffffffffffffffffffffffffffffffffff16611fc8565b15611c66578373ffffffffffffffffffffffffffffffffffffffff1663150b7a02611b36610f15565b8786866040518563ffffffff1660e01b8152600401611b589493929190613719565b6020604051808303816000875af1925050508015611b9457506040513d601f19601f82011682018060405250810190611b91919061377a565b60015b611c16573d8060008114611bc4576040519150601f19603f3d011682016040523d82523d6000602084013e611bc9565b606091505b506000815103611c0e576040517f08c379a0000000000000000000000000000000000000000000000000000000008152600401611c05906135cb565b60405180910390fd5b805181602001fd5b63150b7a0260e01b7bffffffffffffffffffffffffffffffffffffffffffffffffffffffff1916817bffffffffffffffffffffffffffffffffffffffffffffffffffffffff191614915050611c6b565b600190505b949350505050565b60007f01ffc9a7000000000000000000000000000000000000000000000000000000007bffffffffffffffffffffffffffffffffffffffffffffffffffffffff1916827bffffffffffffffffffffffffffffffffffffffffffffffffffffffff1916149050919050565b611ce8838383611feb565b600073ffffffffffffffffffffffffffffffffffffffff168373ffffffffffffffffffffffffffffffffffffffff1603611d2a57611d2581611ff0565b611d69565b8173ffffffffffffffffffffffffffffffffffffffff168373ffffffffffffffffffffffffffffffffffffffff1614611d6857611d678382612039565b5b5b600073ffffffffffffffffffffffffffffffffffffffff168273ffffffffffffffffffffffffffffffffffffffff1603611dab57611da6816121a6565b611dea565b8273ffffffffffffffffffffffffffffffffffffffff168273ffffffffffffffffffffffffffffffffffffffff1614611de957611de88282612277565b5b5b505050565b600073ffffffffffffffffffffffffffffffffffffffff168273ffffffffffffffffffffffffffffffffffffffff1603611e5e576040517f08c379a0000000000000000000000000000000000000000000000000000000008152600401611e55906137f3565b60405180910390fd5b611e678161173c565b15611ea7576040517f08c379a0000000000000000000000000000000000000000000000000000000008152600401611e9e9061385f565b60405180910390fd5b611eb360008383611a7c565b6001600360008473ffffffffffffffffffffffffffffffffffffffff1673ffffffffffffffffffffffffffffffffffffffff1681526020019081526020016000206000828254611f0391906134b9565b92505081905550816002600083815260200190815260200160002060006101000a81548173ffffffffffffffffffffffffffffffffffffffff021916908373ffffffffffffffffffffffffffffffffffffffff160217905550808273ffffffffffffffffffffffffffffffffffffffff16600073ffffffffffffffffffffffffffffffffffffffff167fddf252ad1be2c89b69c2b068fc378daa952ba7f163c4a11628f55a4df523b3ef60405160405180910390a4611fc460008383611a8c565b5050565b6000808273ffffffffffffffffffffffffffffffffffffffff163b119050919050565b505050565b6008805490506009600083815260200190815260200160002081905550600881908060018154018082558091505060019003906000526020600020016000909190919091505550565b60006001612046846109b5565b6120509190613485565b9050600060076000848152602001908152602001600020549050818114612135576000600660008673ffffffffffffffffffffffffffffffffffffffff1673ffffffffffffffffffffffffffffffffffffffff168152602001908152602001600020600084815260200190815260200160002054905080600660008773ffffffffffffffffffffffffffffffffffffffff1673ffffffffffffffffffffffffffffffffffffffff168152602001908152602001600020600084815260200190815260200160002081905550816007600083815260200190815260200160002081905550505b6007600084815260200190815260200160002060009055600660008573ffffffffffffffffffffffffffffffffffffffff1673ffffffffffffffffffffffffffffffffffffffff16815260200190815260200160002060008381526020019081526020016000206000905550505050565b600060016008805490506121ba9190613485565b90506000600960008481526020019081526020016000205490506000600883815481106121ea576121e9612cd4565b5b90600052602060002001549050806008838154811061220c5761220b612cd4565b5b90600052602060002001819055508160096000838152602001908152602001600020819055506009600085815260200190815260200160002060009055600880548061225b5761225a61387f565b5b6001900381819060005260206000200160009055905550505050565b6000612282836109b5565b905081600660008573ffffffffffffffffffffffffffffffffffffffff1673ffffffffffffffffffffffffffffffffffffffff168152602001908152602001600020600083815260200190815260200160002081905550806007600084815260200190815260200160002081905550505050565b6000604051905090565b600080fd5b600080fd5b60007fffffffff0000000000000000000000000000000000000000000000000000000082169050919050565b61233f8161230a565b811461234a57600080fd5b50565b60008135905061235c81612336565b92915050565b60006020828403121561237857612377612300565b5b60006123868482850161234d565b91505092915050565b60008115159050919050565b6123a48161238f565b82525050565b60006020820190506123bf600083018461239b565b92915050565b600081519050919050565b600082825260208201905092915050565b60005b838110156123ff5780820151818401526020810190506123e4565b60008484015250505050565b6000601f19601f8301169050919050565b6000612427826123c5565b61243181856123d0565b93506124418185602086016123e1565b61244a8161240b565b840191505092915050565b6000602082019050818103600083015261246f818461241c565b905092915050565b6000819050919050565b61248a81612477565b811461249557600080fd5b50565b6000813590506124a781612481565b92915050565b6000602082840312156124c3576124c2612300565b5b60006124d184828501612498565b91505092915050565b600073ffffffffffffffffffffffffffffffffffffffff82169050919050565b6000612505826124da565b9050919050565b612515816124fa565b82525050565b6000602082019050612530600083018461250c565b92915050565b61253f816124fa565b811461254a57600080fd5b50565b60008135905061255c81612536565b92915050565b6000806040838503121561257957612578612300565b5b60006125878582860161254d565b925050602061259885828601612498565b9150509250929050565b6125ab81612477565b82525050565b60006020820190506125c660008301846125a2565b92915050565b6000806000606084860312156125e5576125e4612300565b5b60006125f38682870161254d565b93505060206126048682870161254d565b925050604061261586828701612498565b9150509250925092565b60006020828403121561263557612634612300565b5b60006126438482850161254d565b91505092915050565b600080fd5b600080fd5b7f4e487b7100000000000000000000000000000000000000000000000000000000600052604160045260246000fd5b61268e8261240b565b810181811067ffffffffffffffff821117156126ad576126ac612656565b5b80604052505050565b60006126c06122f6565b90506126cc8282612685565b919050565b600067ffffffffffffffff8211156126ec576126eb612656565b5b6126f58261240b565b9050602081019050919050565b82818337600083830152505050565b600061272461271f846126d1565b6126b6565b9050828152602081018484840111156127405761273f612651565b5b61274b848285612702565b509392505050565b600082601f8301126127685761276761264c565b5b8135612778848260208601612711565b91505092915050565b60006020828403121561279757612796612300565b5b600082013567ffffffffffffffff8111156127b5576127b4612305565b5b6127c184828501612753565b91505092915050565b6127d38161238f565b81146127de57600080fd5b50565b6000813590506127f0816127ca565b92915050565b6000806040838503121561280d5761280c612300565b5b600061281b8582860161254d565b925050602061282c858286016127e1565b9150509250929050565b600067ffffffffffffffff82111561285157612850612656565b5b61285a8261240b565b9050602081019050919050565b600061287a61287584612836565b6126b6565b90508281526020810184848401111561289657612895612651565b5b6128a1848285612702565b509392505050565b600082601f8301126128be576128bd61264c565b5b81356128ce848260208601612867565b91505092915050565b600080600080608085870312156128f1576128f0612300565b5b60006128ff8782880161254d565b94505060206129108782880161254d565b935050604061292187828801612498565b925050606085013567ffffffffffffffff81111561294257612941612305565b5b61294e878288016128a9565b91505092959194509250565b6000806040838503121561297157612970612300565b5b600061297f8582860161254d565b92505060206129908582860161254d565b9150509250929050565b7f4e487b7100000000000000000000000000000000000000000000000000000000600052602260045260246000fd5b600060028204905060018216806129e157607f821691505b6020821081036129f4576129f361299a565b5b50919050565b7f4552433732313a20617070726f76616c20746f2063757272656e74206f776e6560008201527f7200000000000000000000000000000000000000000000000000000000000000602082015250565b6000612a566021836123d0565b9150612a61826129fa565b604082019050919050565b60006020820190508181036000830152612a8581612a49565b9050919050565b7f4552433732313a20617070726f76652063616c6c6572206973206e6f7420746f60008201527f6b656e206f776e6572206e6f7220617070726f76656420666f7220616c6c0000602082015250565b6000612ae8603e836123d0565b9150612af382612a8c565b604082019050919050565b60006020820190508181036000830152612b1781612adb565b9050919050565b7f4552433732313a2063616c6c6572206973206e6f7420746f6b656e206f776e6560008201527f72206e6f7220617070726f766564000000000000000000000000000000000000602082015250565b6000612b7a602e836123d0565b9150612b8582612b1e565b604082019050919050565b60006020820190508181036000830152612ba981612b6d565b9050919050565b7f455243373231456e756d657261626c653a206f776e657220696e646578206f7560008201527f74206f6620626f756e6473000000000000000000000000000000000000000000602082015250565b6000612c0c602b836123d0565b9150612c1782612bb0565b604082019050919050565b60006020820190508181036000830152612c3b81612bff565b9050919050565b7f455243373231456e756d657261626c653a20676c6f62616c20696e646578206f60008201527f7574206f6620626f756e64730000000000000000000000000000000000000000602082015250565b6000612c9e602c836123d0565b9150612ca982612c42565b604082019050919050565b60006020820190508181036000830152612ccd81612c91565b9050919050565b7f4e487b7100000000000000000000000000000000000000000000000000000000600052603260045260246000fd5b7f4552433732313a20696e76616c696420746f6b656e2049440000000000000000600082015250565b6000612d396018836123d0565b9150612d4482612d03565b602082019050919050565b60006020820190508181036000830152612d6881612d2c565b9050919050565b7f4552433732313a2061646472657373207a65726f206973206e6f74206120766160008201527f6c6964206f776e65720000000000000000000000000000000000000000000000602082015250565b6000612dcb6029836123d0565b9150612dd682612d6f565b604082019050919050565b60006020820190508181036000830152612dfa81612dbe565b9050919050565b60008190508160005260206000209050919050565b60006020601f8301049050919050565b600082821b905092915050565b600060088302612e637fffffffffffffffffffffffffffffffffffffffffffffffffffffffffffffffff82612e26565b612e6d8683612e26565b95508019841693508086168417925050509392505050565b6000819050919050565b6000612eaa612ea5612ea084612477565b612e85565b612477565b9050919050565b6000819050919050565b612ec483612e8f565b612ed8612ed082612eb1565b848454612e33565b825550505050565b600090565b612eed612ee0565b612ef8818484612ebb565b505050565b5b81811015612f1c57612f11600082612ee5565b600181019050612efe565b5050565b601f821115612f6157612f3281612e01565b612f3b84612e16565b81016020851015612f4a578190505b612f5e612f5685612e16565b830182612efd565b50505b505050565b600082821c905092915050565b6000612f8460001984600802612f66565b1980831691505092915050565b6000612f9d8383612f73565b9150826002028217905092915050565b612fb6826123c5565b67ffffffffffffffff811115612fcf57612fce612656565b5b612fd982546129c9565b612fe4828285612f20565b600060209050601f8311600181146130175760008415613005578287015190505b61300f8582612f91565b865550613077565b601f19841661302586612e01565b60005b8281101561304d57848901518255600182019150602085019450602081019050613028565b8683101561306a5784890151613066601f891682612f73565b8355505b6001600288020188555050505b505050505050565b7f4c6576656c206973206e6f742076616c69640000000000000000000000000000600082015250565b60006130b56012836123d0565b91506130c08261307f565b602082019050919050565b600060208201905081810360008301526130e4816130a8565b9050919050565b7f4552433732314d657461646174613a2055524920717565727920666f72206e6f60008201527f6e6578697374656e7420746f6b656e0000000000000000000000000000000000602082015250565b6000613147602f836123d0565b9150613152826130eb565b604082019050919050565b600060208201905081810360008301526131768161313a565b9050919050565b600081905092915050565b6000613193826123c5565b61319d818561317d565b93506131ad8185602086016123e1565b80840191505092915050565b7f2e6a736f6e000000000000000000000000000000000000000000000000000000600082015250565b60006131ef60058361317d565b91506131fa826131b9565b600582019050919050565b60006132118285613188565b915061321d8284613188565b9150613228826131e2565b91508190509392505050565b7f4f776e61626c653a206e6577206f776e657220697320746865207a65726f206160008201527f6464726573730000000000000000000000000000000000000000000000000000602082015250565b60006132906026836123d0565b915061329b82613234565b604082019050919050565b600060208201905081810360008301526132bf81613283565b9050919050565b7f4f776e61626c653a2063616c6c6572206973206e6f7420746865206f776e6572600082015250565b60006132fc6020836123d0565b9150613307826132c6565b602082019050919050565b6000602082019050818103600083015261332b816132ef565b9050919050565b7f4552433732313a207472616e736665722066726f6d20696e636f72726563742060008201527f6f776e6572000000000000000000000000000000000000000000000000000000602082015250565b600061338e6025836123d0565b915061339982613332565b604082019050919050565b600060208201905081810360008301526133bd81613381565b9050919050565b7f4552433732313a207472616e7366657220746f20746865207a65726f2061646460008201527f7265737300000000000000000000000000000000000000000000000000000000602082015250565b60006134206024836123d0565b915061342b826133c4565b604082019050919050565b6000602082019050818103600083015261344f81613413565b9050919050565b7f4e487b7100000000000000000000000000000000000000000000000000000000600052601160045260246000fd5b600061349082612477565b915061349b83612477565b92508282039050818111156134b3576134b2613456565b5b92915050565b60006134c482612477565b91506134cf83612477565b92508282019050808211156134e7576134e6613456565b5b92915050565b7f4552433732313a20617070726f766520746f2063616c6c657200000000000000600082015250565b60006135236019836123d0565b915061352e826134ed565b602082019050919050565b6000602082019050818103600083015261355281613516565b9050919050565b7f4552433732313a207472616e7366657220746f206e6f6e20455243373231526560008201527f63656976657220696d706c656d656e7465720000000000000000000000000000602082015250565b60006135b56032836123d0565b91506135c082613559565b604082019050919050565b600060208201905081810360008301526135e4816135a8565b9050919050565b60006135f682612477565b91507fffffffffffffffffffffffffffffffffffffffffffffffffffffffffffffffff820361362857613627613456565b5b600182019050919050565b7f4e487b7100000000000000000000000000000000000000000000000000000000600052601260045260246000fd5b600061366d82612477565b915061367883612477565b92508261368857613687613633565b5b828204905092915050565b600061369e82612477565b91506136a983612477565b9250826136b9576136b8613633565b5b828206905092915050565b600081519050919050565b600082825260208201905092915050565b60006136eb826136c4565b6136f581856136cf565b93506137058185602086016123e1565b61370e8161240b565b840191505092915050565b600060808201905061372e600083018761250c565b61373b602083018661250c565b61374860408301856125a2565b818103606083015261375a81846136e0565b905095945050505050565b60008151905061377481612336565b92915050565b6000602082840312156137905761378f612300565b5b600061379e84828501613765565b91505092915050565b7f4552433732313a206d696e7420746f20746865207a65726f2061646472657373600082015250565b60006137dd6020836123d0565b91506137e8826137a7565b602082019050919050565b6000602082019050818103600083015261380c816137d0565b9050919050565b7f4552433732313a20746f6b656e20616c7265616479206d696e74656400000000600082015250565b6000613849601c836123d0565b915061385482613813565b602082019050919050565b600060208201905081810360008301526138788161383c565b9050919050565b7f4e487b7100000000000000000000000000000000000000000000000000000000600052603160045260246000fdfea264697066735822122076ab192e8ba93545538528623418aa1a69eb823da73f2e53af110a065b7b5be064736f6c63430008110033",
  "linkReferences": {},
  "deployedLinkReferences": {}
}